{
  "contractName": "Crud",
  "abi": [
    {
      "anonymous": false,
      "inputs": [
        {
          "indexed": false,
          "internalType": "string",
          "name": "id",
          "type": "string"
        },
        {
          "indexed": false,
          "internalType": "string",
          "name": "docsname",
          "type": "string"
        },
        {
          "indexed": false,
          "internalType": "string",
          "name": "docscreator",
          "type": "string"
        },
        {
          "indexed": false,
          "internalType": "string",
          "name": "creatorunit",
          "type": "string"
        },
        {
          "indexed": false,
          "internalType": "string",
          "name": "creatorid",
          "type": "string"
        },
        {
          "indexed": false,
          "internalType": "string",
          "name": "docssignname",
          "type": "string"
        },
        {
          "indexed": false,
          "internalType": "string",
          "name": "docssigndate",
          "type": "string"
        }
      ],
      "name": "AddDocument",
      "type": "event"
    },
    {
      "anonymous": false,
      "inputs": [
        {
          "indexed": false,
          "internalType": "string",
          "name": "id",
          "type": "string"
        },
        {
          "indexed": false,
          "internalType": "string",
          "name": "docsname",
          "type": "string"
        },
        {
          "indexed": false,
          "internalType": "string",
          "name": "verificatorname",
          "type": "string"
        },
        {
          "indexed": false,
          "internalType": "string",
          "name": "verificatorunit",
          "type": "string"
        },
        {
          "indexed": false,
          "internalType": "string",
          "name": "verificatorid",
          "type": "string"
        },
        {
          "indexed": false,
          "internalType": "string",
          "name": "verificationdate",
          "type": "string"
        }
      ],
      "name": "AddVerificator",
      "type": "event"
    },
    {
      "anonymous": false,
      "inputs": [
        {
          "indexed": false,
          "internalType": "string",
          "name": "id",
          "type": "string"
        }
      ],
      "name": "DeleteDocument",
      "type": "event"
    },
    {
      "anonymous": false,
      "inputs": [
        {
          "indexed": false,
          "internalType": "string",
          "name": "id",
          "type": "string"
        }
      ],
      "name": "DeleteVerificator",
      "type": "event"
    },
    {
      "anonymous": false,
      "inputs": [
        {
          "indexed": false,
          "internalType": "string",
          "name": "id",
          "type": "string"
        },
        {
          "indexed": false,
          "internalType": "string",
          "name": "docsname",
          "type": "string"
        },
        {
          "indexed": false,
          "internalType": "string",
          "name": "docscreator",
          "type": "string"
        },
        {
          "indexed": false,
          "internalType": "string",
          "name": "creatorunit",
          "type": "string"
        },
        {
          "indexed": false,
          "internalType": "string",
          "name": "creatorid",
          "type": "string"
        },
        {
          "indexed": false,
          "internalType": "string",
          "name": "docssignname",
          "type": "string"
        },
        {
          "indexed": false,
          "internalType": "string",
          "name": "docssigndate",
          "type": "string"
        }
      ],
      "name": "UpdateDocument",
      "type": "event"
    },
    {
      "anonymous": false,
      "inputs": [
        {
          "indexed": false,
          "internalType": "string",
          "name": "id",
          "type": "string"
        },
        {
          "indexed": false,
          "internalType": "string",
          "name": "docsname",
          "type": "string"
        },
        {
          "indexed": false,
          "internalType": "string",
          "name": "verificatorname",
          "type": "string"
        },
        {
          "indexed": false,
          "internalType": "string",
          "name": "verificatorunit",
          "type": "string"
        },
        {
          "indexed": false,
          "internalType": "string",
          "name": "verificatorid",
          "type": "string"
        },
        {
          "indexed": false,
          "internalType": "string",
          "name": "verificationdate",
          "type": "string"
        }
      ],
      "name": "UpdateVerificator",
      "type": "event"
    },
    {
      "constant": true,
      "inputs": [
        {
          "internalType": "uint256",
          "name": "",
          "type": "uint256"
        }
      ],
      "name": "document",
      "outputs": [
        {
          "internalType": "string",
          "name": "id",
          "type": "string"
        },
        {
          "internalType": "string",
          "name": "docsname",
          "type": "string"
        },
        {
          "internalType": "string",
          "name": "docscreator",
          "type": "string"
        },
        {
          "internalType": "string",
          "name": "creatorunit",
          "type": "string"
        },
        {
          "internalType": "string",
          "name": "creatorid",
          "type": "string"
        },
        {
          "internalType": "string",
          "name": "docssignname",
          "type": "string"
        },
        {
          "internalType": "string",
          "name": "docssigndate",
          "type": "string"
        }
      ],
      "payable": false,
      "stateMutability": "view",
      "type": "function"
    },
    {
      "constant": true,
      "inputs": [
        {
          "internalType": "uint256",
          "name": "",
          "type": "uint256"
        }
      ],
      "name": "verifikator",
      "outputs": [
        {
          "internalType": "string",
          "name": "id",
          "type": "string"
        },
        {
          "internalType": "string",
          "name": "docsname",
          "type": "string"
        },
        {
          "internalType": "string",
          "name": "verificatorname",
          "type": "string"
        },
        {
          "internalType": "string",
          "name": "verificatorunit",
          "type": "string"
        },
        {
          "internalType": "string",
          "name": "verificatorid",
          "type": "string"
        },
        {
          "internalType": "string",
          "name": "verificationdate",
          "type": "string"
        }
      ],
      "payable": false,
      "stateMutability": "view",
      "type": "function"
    },
    {
      "constant": false,
      "inputs": [
        {
          "internalType": "string",
          "name": "id",
          "type": "string"
        },
        {
          "internalType": "string",
          "name": "docsname",
          "type": "string"
        },
        {
          "internalType": "string",
          "name": "docscreator",
          "type": "string"
        },
        {
          "internalType": "string",
          "name": "creatorunit",
          "type": "string"
        },
        {
          "internalType": "string",
          "name": "creatorid",
          "type": "string"
        },
        {
          "internalType": "string",
          "name": "docssignname",
          "type": "string"
        },
        {
          "internalType": "string",
          "name": "docssigndate",
          "type": "string"
        }
      ],
      "name": "insertDocument",
      "outputs": [],
      "payable": false,
      "stateMutability": "nonpayable",
      "type": "function"
    },
    {
      "constant": false,
      "inputs": [
        {
          "internalType": "string",
          "name": "id",
          "type": "string"
        },
        {
          "internalType": "string",
          "name": "docsname",
          "type": "string"
        },
        {
          "internalType": "string",
          "name": "verificatorname",
          "type": "string"
        },
        {
          "internalType": "string",
          "name": "verificatorunit",
          "type": "string"
        },
        {
          "internalType": "string",
          "name": "verificatorid",
          "type": "string"
        },
        {
          "internalType": "string",
          "name": "verificationdate",
          "type": "string"
        }
      ],
      "name": "insertVerificator",
      "outputs": [],
      "payable": false,
      "stateMutability": "nonpayable",
      "type": "function"
    },
    {
      "constant": true,
      "inputs": [
        {
          "internalType": "string",
          "name": "id",
          "type": "string"
        }
      ],
      "name": "readDocumentById",
      "outputs": [
        {
          "internalType": "string",
          "name": "docid",
          "type": "string"
        },
        {
          "internalType": "string",
          "name": "docsname",
          "type": "string"
        },
        {
          "internalType": "string",
          "name": "docscreator",
          "type": "string"
        },
        {
          "internalType": "string",
          "name": "creatorunit",
          "type": "string"
        },
        {
          "internalType": "string",
          "name": "creatorid",
          "type": "string"
        },
        {
          "internalType": "string",
          "name": "docssignname",
          "type": "string"
        },
        {
          "internalType": "string",
          "name": "docssigndate",
          "type": "string"
        }
      ],
      "payable": false,
      "stateMutability": "view",
      "type": "function"
    },
    {
      "constant": true,
      "inputs": [
        {
          "internalType": "string",
          "name": "id",
          "type": "string"
        }
      ],
      "name": "readVerificatorById",
      "outputs": [
        {
          "internalType": "string",
          "name": "docid",
          "type": "string"
        },
        {
          "internalType": "string",
          "name": "docsname",
          "type": "string"
        },
        {
          "internalType": "string",
          "name": "verificatorname",
          "type": "string"
        },
        {
          "internalType": "string",
          "name": "verificatorunit",
          "type": "string"
        },
        {
          "internalType": "string",
          "name": "verificatorid",
          "type": "string"
        },
        {
          "internalType": "string",
          "name": "verificationdate",
          "type": "string"
        }
      ],
      "payable": false,
      "stateMutability": "view",
      "type": "function"
    },
    {
      "constant": false,
      "inputs": [
        {
          "internalType": "string",
          "name": "id",
          "type": "string"
        },
        {
          "internalType": "string",
          "name": "docsname",
          "type": "string"
        },
        {
          "internalType": "string",
          "name": "docscreator",
          "type": "string"
        },
        {
          "internalType": "string",
          "name": "creatorunit",
          "type": "string"
        },
        {
          "internalType": "string",
          "name": "creatorid",
          "type": "string"
        },
        {
          "internalType": "string",
          "name": "docssignname",
          "type": "string"
        },
        {
          "internalType": "string",
          "name": "docssigndate",
          "type": "string"
        }
      ],
      "name": "updateDocumentById",
      "outputs": [
        {
          "internalType": "bool",
          "name": "success",
          "type": "bool"
        }
      ],
      "payable": false,
      "stateMutability": "nonpayable",
      "type": "function"
    },
    {
      "constant": false,
      "inputs": [
        {
          "internalType": "string",
          "name": "id",
          "type": "string"
        },
        {
          "internalType": "string",
          "name": "docsname",
          "type": "string"
        },
        {
          "internalType": "string",
          "name": "verificatorname",
          "type": "string"
        },
        {
          "internalType": "string",
          "name": "verificatorunit",
          "type": "string"
        },
        {
          "internalType": "string",
          "name": "verificatorid",
          "type": "string"
        },
        {
          "internalType": "string",
          "name": "verificationdate",
          "type": "string"
        }
      ],
      "name": "updateVerificatorById",
      "outputs": [
        {
          "internalType": "bool",
          "name": "success",
          "type": "bool"
        }
      ],
      "payable": false,
      "stateMutability": "nonpayable",
      "type": "function"
    },
    {
      "constant": false,
      "inputs": [
        {
          "internalType": "string",
          "name": "id",
          "type": "string"
        }
      ],
      "name": "DeleteDocumentById",
      "outputs": [
        {
          "internalType": "bool",
          "name": "success",
          "type": "bool"
        }
      ],
      "payable": false,
      "stateMutability": "nonpayable",
      "type": "function"
    },
    {
      "constant": false,
      "inputs": [
        {
          "internalType": "string",
          "name": "id",
          "type": "string"
        }
      ],
      "name": "DeleteVerificatorById",
      "outputs": [
        {
          "internalType": "bool",
          "name": "success",
          "type": "bool"
        }
      ],
      "payable": false,
      "stateMutability": "nonpayable",
      "type": "function"
    }
  ],
  "bytecode": "0x60806040526001600255600160035534801561001a57600080fd5b50614da68061002a6000396000f3fe608060405234801561001057600080fd5b506004361061009e5760003560e01c806368f215c21161006657806368f215c21461119a5780636b1a3eee146114ea5780637fb173af146115bd578063924d7bd1146118ec578063c09a696814611c9a5761009e565b8063022ba7ae146100a3578063064950a4146104e85780633b6ba96a146109455780635982170414610d015780635d3f339914610dd4575b600080fd5b6104e6600480360360e08110156100b957600080fd5b81019080803590602001906401000000008111156100d657600080fd5b8201836020820111156100e857600080fd5b8035906020019184600183028401116401000000008311171561010a57600080fd5b91908080601f016020809104026020016040519081016040528093929190818152602001838380828437600081840152601f19601f8201169050808301925050505050505091929192908035906020019064010000000081111561016d57600080fd5b82018360208201111561017f57600080fd5b803590602001918460018302840111640100000000831117156101a157600080fd5b91908080601f016020809104026020016040519081016040528093929190818152602001838380828437600081840152601f19601f8201169050808301925050505050505091929192908035906020019064010000000081111561020457600080fd5b82018360208201111561021657600080fd5b8035906020019184600183028401116401000000008311171561023857600080fd5b91908080601f016020809104026020016040519081016040528093929190818152602001838380828437600081840152601f19601f8201169050808301925050505050505091929192908035906020019064010000000081111561029b57600080fd5b8201836020820111156102ad57600080fd5b803590602001918460018302840111640100000000831117156102cf57600080fd5b91908080601f016020809104026020016040519081016040528093929190818152602001838380828437600081840152601f19601f8201169050808301925050505050505091929192908035906020019064010000000081111561033257600080fd5b82018360208201111561034457600080fd5b8035906020019184600183028401116401000000008311171561036657600080fd5b91908080601f016020809104026020016040519081016040528093929190818152602001838380828437600081840152601f19601f820116905080830192505050505050509192919290803590602001906401000000008111156103c957600080fd5b8201836020820111156103db57600080fd5b803590602001918460018302840111640100000000831117156103fd57600080fd5b91908080601f016020809104026020016040519081016040528093929190818152602001838380828437600081840152601f19601f8201169050808301925050505050505091929192908035906020019064010000000081111561046057600080fd5b82018360208201111561047257600080fd5b8035906020019184600183028401116401000000008311171561049457600080fd5b91908080601f016020809104026020016040519081016040528093929190818152602001838380828437600081840152601f19601f820116905080830192505050505050509192919290505050611f5d565b005b61092b600480360360e08110156104fe57600080fd5b810190808035906020019064010000000081111561051b57600080fd5b82018360208201111561052d57600080fd5b8035906020019184600183028401116401000000008311171561054f57600080fd5b91908080601f016020809104026020016040519081016040528093929190818152602001838380828437600081840152601f19601f820116905080830192505050505050509192919290803590602001906401000000008111156105b257600080fd5b8201836020820111156105c457600080fd5b803590602001918460018302840111640100000000831117156105e657600080fd5b91908080601f016020809104026020016040519081016040528093929190818152602001838380828437600081840152601f19601f8201169050808301925050505050505091929192908035906020019064010000000081111561064957600080fd5b82018360208201111561065b57600080fd5b8035906020019184600183028401116401000000008311171561067d57600080fd5b91908080601f016020809104026020016040519081016040528093929190818152602001838380828437600081840152601f19601f820116905080830192505050505050509192919290803590602001906401000000008111156106e057600080fd5b8201836020820111156106f257600080fd5b8035906020019184600183028401116401000000008311171561071457600080fd5b91908080601f016020809104026020016040519081016040528093929190818152602001838380828437600081840152601f19601f8201169050808301925050505050505091929192908035906020019064010000000081111561077757600080fd5b82018360208201111561078957600080fd5b803590602001918460018302840111640100000000831117156107ab57600080fd5b91908080601f016020809104026020016040519081016040528093929190818152602001838380828437600081840152601f19601f8201169050808301925050505050505091929192908035906020019064010000000081111561080e57600080fd5b82018360208201111561082057600080fd5b8035906020019184600183028401116401000000008311171561084257600080fd5b91908080601f016020809104026020016040519081016040528093929190818152602001838380828437600081840152601f19601f820116905080830192505050505050509192919290803590602001906401000000008111156108a557600080fd5b8201836020820111156108b757600080fd5b803590602001918460018302840111640100000000831117156108d957600080fd5b91908080601f016020809104026020016040519081016040528093929190818152602001838380828437600081840152601f19601f8201169050808301925050505050505091929192905050506123d0565b604051808215151515815260200191505060405180910390f35b6109fe6004803603602081101561095b57600080fd5b810190808035906020019064010000000081111561097857600080fd5b82018360208201111561098a57600080fd5b803590602001918460018302840111640100000000831117156109ac57600080fd5b91908080601f016020809104026020016040519081016040528093929190818152602001838380828437600081840152601f19601f82011690508083019250505050505050919291929050505061295e565b604051808060200180602001806020018060200180602001806020018060200188810388528f818151815260200191508051906020019080838360005b83811015610a56578082015181840152602081019050610a3b565b50505050905090810190601f168015610a835780820380516001836020036101000a031916815260200191505b5088810387528e818151815260200191508051906020019080838360005b83811015610abc578082015181840152602081019050610aa1565b50505050905090810190601f168015610ae95780820380516001836020036101000a031916815260200191505b5088810386528d818151815260200191508051906020019080838360005b83811015610b22578082015181840152602081019050610b07565b50505050905090810190601f168015610b4f5780820380516001836020036101000a031916815260200191505b5088810385528c818151815260200191508051906020019080838360005b83811015610b88578082015181840152602081019050610b6d565b50505050905090810190601f168015610bb55780820380516001836020036101000a031916815260200191505b5088810384528b818151815260200191508051906020019080838360005b83811015610bee578082015181840152602081019050610bd3565b50505050905090810190601f168015610c1b5780820380516001836020036101000a031916815260200191505b5088810383528a818151815260200191508051906020019080838360005b83811015610c54578082015181840152602081019050610c39565b50505050905090810190601f168015610c815780820380516001836020036101000a031916815260200191505b50888103825289818151815260200191508051906020019080838360005b83811015610cba578082015181840152602081019050610c9f565b50505050905090810190601f168015610ce75780820380516001836020036101000a031916815260200191505b509e50505050505050505050505050505060405180910390f35b610dba60048036036020811015610d1757600080fd5b8101908080359060200190640100000000811115610d3457600080fd5b820183602082011115610d4657600080fd5b80359060200191846001830284011164010000000083111715610d6857600080fd5b91908080601f016020809104026020016040519081016040528093929190818152602001838380828437600081840152601f19601f820116905080830192505050505050509192919290505050612fef565b604051808215151515815260200191505060405180910390f35b611180600480360360c0811015610dea57600080fd5b8101908080359060200190640100000000811115610e0757600080fd5b820183602082011115610e1957600080fd5b80359060200191846001830284011164010000000083111715610e3b57600080fd5b91908080601f016020809104026020016040519081016040528093929190818152602001838380828437600081840152601f19601f82011690508083019250505050505050919291929080359060200190640100000000811115610e9e57600080fd5b820183602082011115610eb057600080fd5b80359060200191846001830284011164010000000083111715610ed257600080fd5b91908080601f016020809104026020016040519081016040528093929190818152602001838380828437600081840152601f19601f82011690508083019250505050505050919291929080359060200190640100000000811115610f3557600080fd5b820183602082011115610f4757600080fd5b80359060200191846001830284011164010000000083111715610f6957600080fd5b91908080601f016020809104026020016040519081016040528093929190818152602001838380828437600081840152601f19601f82011690508083019250505050505050919291929080359060200190640100000000811115610fcc57600080fd5b820183602082011115610fde57600080fd5b8035906020019184600183028401116401000000008311171561100057600080fd5b91908080601f016020809104026020016040519081016040528093929190818152602001838380828437600081840152601f19601f8201169050808301925050505050505091929192908035906020019064010000000081111561106357600080fd5b82018360208201111561107557600080fd5b8035906020019184600183028401116401000000008311171561109757600080fd5b91908080601f016020809104026020016040519081016040528093929190818152602001838380828437600081840152601f19601f820116905080830192505050505050509192919290803590602001906401000000008111156110fa57600080fd5b82018360208201111561110c57600080fd5b8035906020019184600183028401116401000000008311171561112e57600080fd5b91908080601f016020809104026020016040519081016040528093929190818152602001838380828437600081840152601f19601f820116905080830192505050505050509192919290505050613212565b604051808215151515815260200191505060405180910390f35b611253600480360360208110156111b057600080fd5b81019080803590602001906401000000008111156111cd57600080fd5b8201836020820111156111df57600080fd5b8035906020019184600183028401116401000000008311171561120157600080fd5b91908080601f016020809104026020016040519081016040528093929190818152602001838380828437600081840152601f19601f8201169050808301925050505050505091929192905050506136ff565b6040518080602001806020018060200180602001806020018060200187810387528d818151815260200191508051906020019080838360005b838110156112a757808201518184015260208101905061128c565b50505050905090810190601f1680156112d45780820380516001836020036101000a031916815260200191505b5087810386528c818151815260200191508051906020019080838360005b8381101561130d5780820151818401526020810190506112f2565b50505050905090810190601f16801561133a5780820380516001836020036101000a031916815260200191505b5087810385528b818151815260200191508051906020019080838360005b83811015611373578082015181840152602081019050611358565b50505050905090810190601f1680156113a05780820380516001836020036101000a031916815260200191505b5087810384528a818151815260200191508051906020019080838360005b838110156113d95780820151818401526020810190506113be565b50505050905090810190601f1680156114065780820380516001836020036101000a031916815260200191505b50878103835289818151815260200191508051906020019080838360005b8381101561143f578082015181840152602081019050611424565b50505050905090810190601f16801561146c5780820380516001836020036101000a031916815260200191505b50878103825288818151815260200191508051906020019080838360005b838110156114a557808201518184015260208101905061148a565b50505050905090810190601f1680156114d25780820380516001836020036101000a031916815260200191505b509c5050505050505050505050505060405180910390f35b6115a36004803603602081101561150057600080fd5b810190808035906020019064010000000081111561151d57600080fd5b82018360208201111561152f57600080fd5b8035906020019184600183028401116401000000008311171561155157600080fd5b91908080601f016020809104026020016040519081016040528093929190818152602001838380828437600081840152601f19601f820116905080830192505050505050509192919290505050613cd0565b604051808215151515815260200191505060405180910390f35b6115e9600480360360208110156115d357600080fd5b8101908080359060200190929190505050613ee3565b604051808060200180602001806020018060200180602001806020018060200188810388528f818151815260200191508051906020019080838360005b83811015611641578082015181840152602081019050611626565b50505050905090810190601f16801561166e5780820380516001836020036101000a031916815260200191505b5088810387528e818151815260200191508051906020019080838360005b838110156116a757808201518184015260208101905061168c565b50505050905090810190601f1680156116d45780820380516001836020036101000a031916815260200191505b5088810386528d818151815260200191508051906020019080838360005b8381101561170d5780820151818401526020810190506116f2565b50505050905090810190601f16801561173a5780820380516001836020036101000a031916815260200191505b5088810385528c818151815260200191508051906020019080838360005b83811015611773578082015181840152602081019050611758565b50505050905090810190601f1680156117a05780820380516001836020036101000a031916815260200191505b5088810384528b818151815260200191508051906020019080838360005b838110156117d95780820151818401526020810190506117be565b50505050905090810190601f1680156118065780820380516001836020036101000a031916815260200191505b5088810383528a818151815260200191508051906020019080838360005b8381101561183f578082015181840152602081019050611824565b50505050905090810190601f16801561186c5780820380516001836020036101000a031916815260200191505b50888103825289818151815260200191508051906020019080838360005b838110156118a557808201518184015260208101905061188a565b50505050905090810190601f1680156118d25780820380516001836020036101000a031916815260200191505b509e50505050505050505050505050505060405180910390f35b611c98600480360360c081101561190257600080fd5b810190808035906020019064010000000081111561191f57600080fd5b82018360208201111561193157600080fd5b8035906020019184600183028401116401000000008311171561195357600080fd5b91908080601f016020809104026020016040519081016040528093929190818152602001838380828437600081840152601f19601f820116905080830192505050505050509192919290803590602001906401000000008111156119b657600080fd5b8201836020820111156119c857600080fd5b803590602001918460018302840111640100000000831117156119ea57600080fd5b91908080601f016020809104026020016040519081016040528093929190818152602001838380828437600081840152601f19601f82011690508083019250505050505050919291929080359060200190640100000000811115611a4d57600080fd5b820183602082011115611a5f57600080fd5b80359060200191846001830284011164010000000083111715611a8157600080fd5b91908080601f016020809104026020016040519081016040528093929190818152602001838380828437600081840152601f19601f82011690508083019250505050505050919291929080359060200190640100000000811115611ae457600080fd5b820183602082011115611af657600080fd5b80359060200191846001830284011164010000000083111715611b1857600080fd5b91908080601f016020809104026020016040519081016040528093929190818152602001838380828437600081840152601f19601f82011690508083019250505050505050919291929080359060200190640100000000811115611b7b57600080fd5b820183602082011115611b8d57600080fd5b80359060200191846001830284011164010000000083111715611baf57600080fd5b91908080601f016020809104026020016040519081016040528093929190818152602001838380828437600081840152601f19601f82011690508083019250505050505050919291929080359060200190640100000000811115611c1257600080fd5b820183602082011115611c2457600080fd5b80359060200191846001830284011164010000000083111715611c4657600080fd5b91908080601f016020809104026020016040519081016040528093929190818152602001838380828437600081840152601f19601f82011690508083019250505050505050919291929050505061435a565b005b611cc660048036036020811015611cb057600080fd5b810190808035906020019092919050505061473c565b6040518080602001806020018060200180602001806020018060200187810387528d818151815260200191508051906020019080838360005b83811015611d1a578082015181840152602081019050611cff565b50505050905090810190601f168015611d475780820380516001836020036101000a031916815260200191505b5087810386528c818151815260200191508051906020019080838360005b83811015611d80578082015181840152602081019050611d65565b50505050905090810190601f168015611dad5780820380516001836020036101000a031916815260200191505b5087810385528b818151815260200191508051906020019080838360005b83811015611de6578082015181840152602081019050611dcb565b50505050905090810190601f168015611e135780820380516001836020036101000a031916815260200191505b5087810384528a818151815260200191508051906020019080838360005b83811015611e4c578082015181840152602081019050611e31565b50505050905090810190601f168015611e795780820380516001836020036101000a031916815260200191505b50878103835289818151815260200191508051906020019080838360005b83811015611eb2578082015181840152602081019050611e97565b50505050905090810190601f168015611edf5780820380516001836020036101000a031916815260200191505b50878103825288818151815260200191508051906020019080838360005b83811015611f18578082015181840152602081019050611efd565b50505050905090810190601f168015611f455780820380516001836020036101000a031916815260200191505b509c5050505050505050505050505060405180910390f35b60006040518060e0016040528089815260200188815260200187815260200186815260200185815260200184815260200183815250908060018154018082558091505090600182039060005260206000209060070201600090919290919091506000820151816000019080519060200190611fd9929190614c04565b506020820151816001019080519060200190611ff6929190614c04565b506040820151816002019080519060200190612013929190614c04565b506060820151816003019080519060200190612030929190614c04565b50608082015181600401908051906020019061204d929190614c04565b5060a082015181600501908051906020019061206a929190614c04565b5060c0820151816006019080519060200190612087929190614c04565b505050506002600081548092919060010191905055507f3ee7be3bec792cc64fab3ee310dc379fbd853cb6a600773c499eb9a03707335f87878787878787604051808060200180602001806020018060200180602001806020018060200188810388528f818151815260200191508051906020019080838360005b8381101561211d578082015181840152602081019050612102565b50505050905090810190601f16801561214a5780820380516001836020036101000a031916815260200191505b5088810387528e818151815260200191508051906020019080838360005b83811015612183578082015181840152602081019050612168565b50505050905090810190601f1680156121b05780820380516001836020036101000a031916815260200191505b5088810386528d818151815260200191508051906020019080838360005b838110156121e95780820151818401526020810190506121ce565b50505050905090810190601f1680156122165780820380516001836020036101000a031916815260200191505b5088810385528c818151815260200191508051906020019080838360005b8381101561224f578082015181840152602081019050612234565b50505050905090810190601f16801561227c5780820380516001836020036101000a031916815260200191505b5088810384528b818151815260200191508051906020019080838360005b838110156122b557808201518184015260208101905061229a565b50505050905090810190601f1680156122e25780820380516001836020036101000a031916815260200191505b5088810383528a818151815260200191508051906020019080838360005b8381101561231b578082015181840152602081019050612300565b50505050905090810190601f1680156123485780820380516001836020036101000a031916815260200191505b50888103825289818151815260200191508051906020019080838360005b83811015612381578082015181840152602081019050612366565b50505050905090810190601f1680156123ae5780820380516001836020036101000a031916815260200191505b509e50505050505050505050505050505060405180910390a150505050505050565b600080600090505b60025481101561294d576124a2600082815481106123f257fe5b90600052602060002090600702016000018054600181600116156101000203166002900480601f0160208091040260200160405190810160405280929190818152602001828054600181600116156101000203166002900480156124975780601f1061246c57610100808354040283529160200191612497565b820191906000526020600020905b81548152906001019060200180831161247a57829003601f168201915b50505050508a614b15565b156129405788600082815481106124b557fe5b906000526020600020906007020160000190805190602001906124d9929190614c84565b5087600082815481106124e857fe5b9060005260206000209060070201600101908051906020019061250c929190614c84565b50866000828154811061251b57fe5b9060005260206000209060070201600201908051906020019061253f929190614c84565b50856000828154811061254e57fe5b90600052602060002090600702016003019080519060200190612572929190614c84565b50846000828154811061258157fe5b906000526020600020906007020160040190805190602001906125a5929190614c84565b5083600082815481106125b457fe5b906000526020600020906007020160050190805190602001906125d8929190614c84565b5082600082815481106125e757fe5b9060005260206000209060070201600601908051906020019061260b929190614c84565b507f2f20e1d18f85107f1bd79718e7e0431fe939eaa88c72d055af520ef62361b06989898989898989604051808060200180602001806020018060200180602001806020018060200188810388528f818151815260200191508051906020019080838360005b8381101561268c578082015181840152602081019050612671565b50505050905090810190601f1680156126b95780820380516001836020036101000a031916815260200191505b5088810387528e818151815260200191508051906020019080838360005b838110156126f25780820151818401526020810190506126d7565b50505050905090810190601f16801561271f5780820380516001836020036101000a031916815260200191505b5088810386528d818151815260200191508051906020019080838360005b8381101561275857808201518184015260208101905061273d565b50505050905090810190601f1680156127855780820380516001836020036101000a031916815260200191505b5088810385528c818151815260200191508051906020019080838360005b838110156127be5780820151818401526020810190506127a3565b50505050905090810190601f1680156127eb5780820380516001836020036101000a031916815260200191505b5088810384528b818151815260200191508051906020019080838360005b83811015612824578082015181840152602081019050612809565b50505050905090810190601f1680156128515780820380516001836020036101000a031916815260200191505b5088810383528a818151815260200191508051906020019080838360005b8381101561288a57808201518184015260208101905061286f565b50505050905090810190601f1680156128b75780820380516001836020036101000a031916815260200191505b50888103825289818151815260200191508051906020019080838360005b838110156128f05780820151818401526020810190506128d5565b50505050905090810190601f16801561291d5780820380516001836020036101000a031916815260200191505b509e50505050505050505050505050505060405180910390a16001915050612953565b80806001019150506123d8565b50600090505b979650505050505050565b606080606080606080606060008090505b600254811015612f7557612a396000828154811061298957fe5b90600052602060002090600702016000018054600181600116156101000203166002900480601f016020809104026020016040519081016040528092919081815260200182805460018160011615610100020316600290048015612a2e5780601f10612a0357610100808354040283529160200191612a2e565b820191906000526020600020905b815481529060010190602001808311612a1157829003601f168201915b50505050508a614b15565b15612f685760008181548110612a4b57fe5b906000526020600020906007020160000160008281548110612a6957fe5b906000526020600020906007020160010160008381548110612a8757fe5b906000526020600020906007020160020160008481548110612aa557fe5b906000526020600020906007020160030160008581548110612ac357fe5b906000526020600020906007020160040160008681548110612ae157fe5b906000526020600020906007020160050160008781548110612aff57fe5b9060005260206000209060070201600601868054600181600116156101000203166002900480601f016020809104026020016040519081016040528092919081815260200182805460018160011615610100020316600290048015612ba55780601f10612b7a57610100808354040283529160200191612ba5565b820191906000526020600020905b815481529060010190602001808311612b8857829003601f168201915b50505050509650858054600181600116156101000203166002900480601f016020809104026020016040519081016040528092919081815260200182805460018160011615610100020316600290048015612c415780601f10612c1657610100808354040283529160200191612c41565b820191906000526020600020905b815481529060010190602001808311612c2457829003601f168201915b50505050509550848054600181600116156101000203166002900480601f016020809104026020016040519081016040528092919081815260200182805460018160011615610100020316600290048015612cdd5780601f10612cb257610100808354040283529160200191612cdd565b820191906000526020600020905b815481529060010190602001808311612cc057829003601f168201915b50505050509450838054600181600116156101000203166002900480601f016020809104026020016040519081016040528092919081815260200182805460018160011615610100020316600290048015612d795780601f10612d4e57610100808354040283529160200191612d79565b820191906000526020600020905b815481529060010190602001808311612d5c57829003601f168201915b50505050509350828054600181600116156101000203166002900480601f016020809104026020016040519081016040528092919081815260200182805460018160011615610100020316600290048015612e155780601f10612dea57610100808354040283529160200191612e15565b820191906000526020600020905b815481529060010190602001808311612df857829003601f168201915b50505050509250818054600181600116156101000203166002900480601f016020809104026020016040519081016040528092919081815260200182805460018160011615610100020316600290048015612eb15780601f10612e8657610100808354040283529160200191612eb1565b820191906000526020600020905b815481529060010190602001808311612e9457829003601f168201915b50505050509150808054600181600116156101000203166002900480601f016020809104026020016040519081016040528092919081815260200182805460018160011615610100020316600290048015612f4d5780601f10612f2257610100808354040283529160200191612f4d565b820191906000526020600020905b815481529060010190602001808311612f3057829003601f168201915b50505050509050975097509750975097509750975050612fe4565b808060010191505061296f565b506040517f08c379a00000000000000000000000000000000000000000000000000000000081526004018080602001828103825260128152602001807f446f63756d656e74206e6f7420666f756e64000000000000000000000000000081525060200191505060405180910390fd5b919395979092949650565b600080600090505b600254811015613207576130c16000828154811061301157fe5b90600052602060002090600702016000018054600181600116156101000203166002900480601f0160208091040260200160405190810160405280929190818152602001828054600181600116156101000203166002900480156130b65780601f1061308b576101008083540402835291602001916130b6565b820191906000526020600020905b81548152906001019060200180831161309957829003601f168201915b505050505084614b15565b156131fa57600081815481106130d357fe5b9060005260206000209060070201600080820160006130f29190614d04565b6001820160006131029190614d04565b6002820160006131129190614d04565b6003820160006131229190614d04565b6004820160006131329190614d04565b6005820160006131429190614d04565b6006820160006131529190614d04565b50507f239e0e4f00b4a437f8e74b831c26bf6955b3f5363ff6c59061d9f7cedc4e8d39836040518080602001828103825283818151815260200191508051906020019080838360005b838110156131b657808201518184015260208101905061319b565b50505050905090810190601f1680156131e35780820380516001836020036101000a031916815260200191505b509250505060405180910390a1600191505061320d565b8080600101915050612ff7565b50600090505b919050565b600080600090505b6003548110156136ef576132e46001828154811061323457fe5b90600052602060002090600602016000018054600181600116156101000203166002900480601f0160208091040260200160405190810160405280929190818152602001828054600181600116156101000203166002900480156132d95780601f106132ae576101008083540402835291602001916132d9565b820191906000526020600020905b8154815290600101906020018083116132bc57829003601f168201915b505050505089614b15565b156136e25787600182815481106132f757fe5b9060005260206000209060060201600001908051906020019061331b929190614c84565b50866001828154811061332a57fe5b9060005260206000209060060201600101908051906020019061334e929190614c84565b50856001828154811061335d57fe5b90600052602060002090600602016002019080519060200190613381929190614c84565b50846001828154811061339057fe5b906000526020600020906006020160030190805190602001906133b4929190614c84565b5083600182815481106133c357fe5b906000526020600020906006020160040190805190602001906133e7929190614c84565b5082600182815481106133f657fe5b9060005260206000209060060201600501908051906020019061341a929190614c84565b507fc3f269f46b322129c5d1e8afdd7adc58c75e6011ce953cadfa9ece9ed0bfa7168888888888886040518080602001806020018060200180602001806020018060200187810387528d818151815260200191508051906020019080838360005b8381101561349657808201518184015260208101905061347b565b50505050905090810190601f1680156134c35780820380516001836020036101000a031916815260200191505b5087810386528c818151815260200191508051906020019080838360005b838110156134fc5780820151818401526020810190506134e1565b50505050905090810190601f1680156135295780820380516001836020036101000a031916815260200191505b5087810385528b818151815260200191508051906020019080838360005b83811015613562578082015181840152602081019050613547565b50505050905090810190601f16801561358f5780820380516001836020036101000a031916815260200191505b5087810384528a818151815260200191508051906020019080838360005b838110156135c85780820151818401526020810190506135ad565b50505050905090810190601f1680156135f55780820380516001836020036101000a031916815260200191505b50878103835289818151815260200191508051906020019080838360005b8381101561362e578082015181840152602081019050613613565b50505050905090810190601f16801561365b5780820380516001836020036101000a031916815260200191505b50878103825288818151815260200191508051906020019080838360005b83811015613694578082015181840152602081019050613679565b50505050905090810190601f1680156136c15780820380516001836020036101000a031916815260200191505b509c5050505050505050505050505060405180910390a160019150506136f5565b808060010191505061321a565b50600090505b9695505050505050565b60608060608060608060008090505b600354811015613c58576137d86001828154811061372857fe5b90600052602060002090600602016000018054600181600116156101000203166002900480601f0160208091040260200160405190810160405280929190818152602001828054600181600116156101000203166002900480156137cd5780601f106137a2576101008083540402835291602001916137cd565b820191906000526020600020905b8154815290600101906020018083116137b057829003601f168201915b505050505089614b15565b15613c4b57600181815481106137ea57fe5b90600052602060002090600602016000016001828154811061380857fe5b90600052602060002090600602016001016001838154811061382657fe5b90600052602060002090600602016002016001848154811061384457fe5b90600052602060002090600602016003016001858154811061386257fe5b90600052602060002090600602016004016001868154811061388057fe5b9060005260206000209060060201600501858054600181600116156101000203166002900480601f0160208091040260200160405190810160405280929190818152602001828054600181600116156101000203166002900480156139265780601f106138fb57610100808354040283529160200191613926565b820191906000526020600020905b81548152906001019060200180831161390957829003601f168201915b50505050509550848054600181600116156101000203166002900480601f0160208091040260200160405190810160405280929190818152602001828054600181600116156101000203166002900480156139c25780601f10613997576101008083540402835291602001916139c2565b820191906000526020600020905b8154815290600101906020018083116139a557829003601f168201915b50505050509450838054600181600116156101000203166002900480601f016020809104026020016040519081016040528092919081815260200182805460018160011615610100020316600290048015613a5e5780601f10613a3357610100808354040283529160200191613a5e565b820191906000526020600020905b815481529060010190602001808311613a4157829003601f168201915b50505050509350828054600181600116156101000203166002900480601f016020809104026020016040519081016040528092919081815260200182805460018160011615610100020316600290048015613afa5780601f10613acf57610100808354040283529160200191613afa565b820191906000526020600020905b815481529060010190602001808311613add57829003601f168201915b50505050509250818054600181600116156101000203166002900480601f016020809104026020016040519081016040528092919081815260200182805460018160011615610100020316600290048015613b965780601f10613b6b57610100808354040283529160200191613b96565b820191906000526020600020905b815481529060010190602001808311613b7957829003601f168201915b50505050509150808054600181600116156101000203166002900480601f016020809104026020016040519081016040528092919081815260200182805460018160011615610100020316600290048015613c325780601f10613c0757610100808354040283529160200191613c32565b820191906000526020600020905b815481529060010190602001808311613c1557829003601f168201915b5050505050905096509650965096509650965050613cc7565b808060010191505061370e565b506040517f08c379a00000000000000000000000000000000000000000000000000000000081526004018080602001828103825260128152602001807f446f63756d656e74206e6f7420666f756e64000000000000000000000000000081525060200191505060405180910390fd5b91939550919395565b600080600090505b600354811015613ed857613da260018281548110613cf257fe5b90600052602060002090600602016000018054600181600116156101000203166002900480601f016020809104026020016040519081016040528092919081815260200182805460018160011615610100020316600290048015613d975780601f10613d6c57610100808354040283529160200191613d97565b820191906000526020600020905b815481529060010190602001808311613d7a57829003601f168201915b505050505084614b15565b15613ecb5760018181548110613db457fe5b906000526020600020906006020160008082016000613dd39190614d04565b600182016000613de39190614d04565b600282016000613df39190614d04565b600382016000613e039190614d04565b600482016000613e139190614d04565b600582016000613e239190614d04565b50507ff888c4aff2b8360c092ebaa020d33a8bd02a04ac1b12102d7a8d0b8d64c95801836040518080602001828103825283818151815260200191508051906020019080838360005b83811015613e87578082015181840152602081019050613e6c565b50505050905090810190601f168015613eb45780820380516001836020036101000a031916815260200191505b509250505060405180910390a16001915050613ede565b8080600101915050613cd8565b50600090505b919050565b60008181548110613ef057fe5b9060005260206000209060070201600091509050806000018054600181600116156101000203166002900480601f016020809104026020016040519081016040528092919081815260200182805460018160011615610100020316600290048015613f9c5780601f10613f7157610100808354040283529160200191613f9c565b820191906000526020600020905b815481529060010190602001808311613f7f57829003601f168201915b505050505090806001018054600181600116156101000203166002900480601f01602080910402602001604051908101604052809291908181526020018280546001816001161561010002031660029004801561403a5780601f1061400f5761010080835404028352916020019161403a565b820191906000526020600020905b81548152906001019060200180831161401d57829003601f168201915b505050505090806002018054600181600116156101000203166002900480601f0160208091040260200160405190810160405280929190818152602001828054600181600116156101000203166002900480156140d85780601f106140ad576101008083540402835291602001916140d8565b820191906000526020600020905b8154815290600101906020018083116140bb57829003601f168201915b505050505090806003018054600181600116156101000203166002900480601f0160208091040260200160405190810160405280929190818152602001828054600181600116156101000203166002900480156141765780601f1061414b57610100808354040283529160200191614176565b820191906000526020600020905b81548152906001019060200180831161415957829003601f168201915b505050505090806004018054600181600116156101000203166002900480601f0160208091040260200160405190810160405280929190818152602001828054600181600116156101000203166002900480156142145780601f106141e957610100808354040283529160200191614214565b820191906000526020600020905b8154815290600101906020018083116141f757829003601f168201915b505050505090806005018054600181600116156101000203166002900480601f0160208091040260200160405190810160405280929190818152602001828054600181600116156101000203166002900480156142b25780601f10614287576101008083540402835291602001916142b2565b820191906000526020600020905b81548152906001019060200180831161429557829003601f168201915b505050505090806006018054600181600116156101000203166002900480601f0160208091040260200160405190810160405280929190818152602001828054600181600116156101000203166002900480156143505780601f1061432557610100808354040283529160200191614350565b820191906000526020600020905b81548152906001019060200180831161433357829003601f168201915b5050505050905087565b60016040518060c00160405280888152602001878152602001868152602001858152602001848152602001838152509080600181540180825580915050906001820390600052602060002090600602016000909192909190915060008201518160000190805190602001906143d0929190614c04565b5060208201518160010190805190602001906143ed929190614c04565b50604082015181600201908051906020019061440a929190614c04565b506060820151816003019080519060200190614427929190614c04565b506080820151816004019080519060200190614444929190614c04565b5060a0820151816005019080519060200190614461929190614c04565b505050506003600081548092919060010191905055507f6664d4efc3ed80ca069840343975ab957c15f1ec21b8ad21a0736bcb708f18bb8686868686866040518080602001806020018060200180602001806020018060200187810387528d818151815260200191508051906020019080838360005b838110156144f25780820151818401526020810190506144d7565b50505050905090810190601f16801561451f5780820380516001836020036101000a031916815260200191505b5087810386528c818151815260200191508051906020019080838360005b8381101561455857808201518184015260208101905061453d565b50505050905090810190601f1680156145855780820380516001836020036101000a031916815260200191505b5087810385528b818151815260200191508051906020019080838360005b838110156145be5780820151818401526020810190506145a3565b50505050905090810190601f1680156145eb5780820380516001836020036101000a031916815260200191505b5087810384528a818151815260200191508051906020019080838360005b83811015614624578082015181840152602081019050614609565b50505050905090810190601f1680156146515780820380516001836020036101000a031916815260200191505b50878103835289818151815260200191508051906020019080838360005b8381101561468a57808201518184015260208101905061466f565b50505050905090810190601f1680156146b75780820380516001836020036101000a031916815260200191505b50878103825288818151815260200191508051906020019080838360005b838110156146f05780820151818401526020810190506146d5565b50505050905090810190601f16801561471d5780820380516001836020036101000a031916815260200191505b509c5050505050505050505050505060405180910390a1505050505050565b6001818154811061474957fe5b9060005260206000209060060201600091509050806000018054600181600116156101000203166002900480601f0160208091040260200160405190810160405280929190818152602001828054600181600116156101000203166002900480156147f55780601f106147ca576101008083540402835291602001916147f5565b820191906000526020600020905b8154815290600101906020018083116147d857829003601f168201915b505050505090806001018054600181600116156101000203166002900480601f0160208091040260200160405190810160405280929190818152602001828054600181600116156101000203166002900480156148935780601f1061486857610100808354040283529160200191614893565b820191906000526020600020905b81548152906001019060200180831161487657829003601f168201915b505050505090806002018054600181600116156101000203166002900480601f0160208091040260200160405190810160405280929190818152602001828054600181600116156101000203166002900480156149315780601f1061490657610100808354040283529160200191614931565b820191906000526020600020905b81548152906001019060200180831161491457829003601f168201915b505050505090806003018054600181600116156101000203166002900480601f0160208091040260200160405190810160405280929190818152602001828054600181600116156101000203166002900480156149cf5780601f106149a4576101008083540402835291602001916149cf565b820191906000526020600020905b8154815290600101906020018083116149b257829003601f168201915b505050505090806004018054600181600116156101000203166002900480601f016020809104026020016040519081016040528092919081815260200182805460018160011615610100020316600290048015614a6d5780601f10614a4257610100808354040283529160200191614a6d565b820191906000526020600020905b815481529060010190602001808311614a5057829003601f168201915b505050505090806005018054600181600116156101000203166002900480601f016020809104026020016040519081016040528092919081815260200182805460018160011615610100020316600290048015614b0b5780601f10614ae057610100808354040283529160200191614b0b565b820191906000526020600020905b815481529060010190602001808311614aee57829003601f168201915b5050505050905086565b6000816040516020018082805190602001908083835b60208310614b4e5780518252602082019150602081019050602083039250614b2b565b6001836020036101000a03801982511681845116808217855250505050505090500191505060405160208183030381529060405280519060200120836040516020018082805190602001908083835b60208310614bc05780518252602082019150602081019050602083039250614b9d565b6001836020036101000a0380198251168184511680821785525050505050509050019150506040516020818303038152906040528051906020012014905092915050565b828054600181600116156101000203166002900490600052602060002090601f016020900481019282601f10614c4557805160ff1916838001178555614c73565b82800160010185558215614c73579182015b82811115614c72578251825591602001919060010190614c57565b5b509050614c809190614d4c565b5090565b828054600181600116156101000203166002900490600052602060002090601f016020900481019282601f10614cc557805160ff1916838001178555614cf3565b82800160010185558215614cf3579182015b82811115614cf2578251825591602001919060010190614cd7565b5b509050614d009190614d4c565b5090565b50805460018160011615610100020316600290046000825580601f10614d2a5750614d49565b601f016020900490600052602060002090810190614d489190614d4c565b5b50565b614d6e91905b80821115614d6a576000816000905550600101614d52565b5090565b9056fea265627a7a72315820d76cbd67bfd76cb19da3803541de6f724716d8a48b8cf564022e29ffb7564fb564736f6c63430005100032",
  "source": "pragma solidity ^0.5.16;\n\n\ncontract Crud {\n    struct Document {\n        string id;\n        string docsname;\n        string docscreator;\n        string creatorunit;\n        string creatorid;\n        string docssignname;\n        string docssigndate;\n    }\n    \n    struct Verifikator {\n        string id;\n        string docsname;\n        string verificatorname;\n        string verificatorunit;\n        string verificatorid;\n        string verificationdate;\n    }\n\n    //Storing Data Struct ke Array\n    Document[] public document;\n    Verifikator[] public verifikator;\n    uint256 nextId = 1;\n    uint256 verifId = 1;\n\n    event AddDocument(string id,\n        string docsname,\n        string docscreator,\n        string creatorunit,\n        string creatorid,\n        string docssignname,\n        string docssigndate);\n        \n    event AddVerificator(string id,\n        string docsname,\n        string verificatorname,\n        string verificatorunit,\n        string verificatorid,\n        string verificationdate);\n    \n    event UpdateDocument(string id,\n        string docsname,\n        string docscreator,\n        string creatorunit,\n        string creatorid,\n        string docssignname,\n        string docssigndate);\n        \n    event UpdateVerificator(string id,\n        string docsname,\n        string verificatorname,\n        string verificatorunit,\n        string verificatorid,\n        string verificationdate);\n\n    event DeleteDocument(string id);\n    \n    event DeleteVerificator(string id);\n\n    function insertDocument(string memory id,\n        string memory docsname,\n        string memory docscreator,\n        string memory creatorunit,\n        string memory creatorid,\n        string memory docssignname,\n        string memory docssigndate) public {\n            document.push(Document(id, docsname, docscreator, creatorunit, creatorid, docssignname, docssigndate));\n            nextId++;\n\n            emit AddDocument(id, docsname, docscreator, creatorunit, creatorid, docssignname, docssigndate);\n    }\n    \n    function insertVerificator(string memory id,\n        string memory docsname,\n        string memory verificatorname,\n        string memory verificatorunit,\n        string memory verificatorid,\n        string memory verificationdate) public {\n            verifikator.push(Verifikator(id, docsname, verificatorname, verificatorunit, verificatorid, verificationdate));\n            verifId++;\n            \n            emit AddVerificator(id, docsname, verificatorname, verificatorunit, verificatorid, verificationdate);\n        }\n\n    function readDocumentById(string memory id) public view returns (string memory docid,\n        string memory docsname,\n        string memory docscreator,\n        string memory creatorunit,\n        string memory creatorid,\n        string memory docssignname,\n        string memory docssigndate){\n            for(uint256 i = 0; i < nextId; i++){\n            if(compareStrings(document[i].id, id)){\n                return(document[i].id, document[i].docsname, document[i].docscreator, document[i].creatorunit, document[i].creatorid, document[i].docssignname, document[i].docssigndate);\n            }\n            }\n        revert('Document not found');\n    }\n    \n    function readVerificatorById(string memory id) public view returns (string memory docid,\n        string memory docsname,\n        string memory verificatorname,\n        string memory verificatorunit,\n        string memory verificatorid,\n        string memory verificationdate){\n            for(uint256 i = 0; i < verifId; i++){\n            if(compareStrings(verifikator[i].id, id)){\n                return(verifikator[i].id, verifikator[i].docsname, verifikator[i].verificatorname, verifikator[i].verificatorunit, verifikator[i].verificatorid, verifikator[i].verificationdate);\n            }\n        }\n        revert('Document not found');\n    }\n\n    function updateDocumentById(string memory id,\n        string memory docsname,\n        string memory docscreator,\n        string memory creatorunit,\n        string memory creatorid,\n        string memory docssignname,\n        string memory docssigndate) public returns(bool success) {\n        for(uint256 i = 0; i < nextId; i++){\n            if(compareStrings(document[i].id, id)){\n                document[i].id = id;\n                document[i].docsname = docsname;\n                document[i].docscreator = docscreator;\n                document[i].creatorunit = creatorunit;\n                document[i].creatorid = creatorid;\n                document[i].docssignname = docssignname;\n                document[i].docssigndate = docssigndate;\n\n              emit UpdateDocument(id, docsname, docscreator, creatorunit, creatorid, docssignname, docssigndate);\n              return true;\n            }\n        }\n        return false;\n    }\n    \n    function updateVerificatorById(string memory id,\n        string memory docsname,\n        string memory verificatorname,\n        string memory verificatorunit,\n        string memory verificatorid,\n        string memory verificationdate) public returns (bool success) {\n            for(uint256 i = 0; i < verifId; i++){\n            if(compareStrings(verifikator[i].id, id)){\n                verifikator[i].id = id;\n                verifikator[i].docsname = docsname;\n                verifikator[i].verificatorname = verificatorname;\n                verifikator[i].verificatorunit = verificatorunit;\n                verifikator[i].verificatorid = verificatorid;\n                verifikator[i].verificationdate = verificationdate;\n\n              emit UpdateVerificator(id, docsname, verificatorname, verificatorunit, verificatorid, verificationdate);\n              return true;\n            }\n        }\n        return false;\n        }\n\n    function DeleteDocumentById(string memory id) public returns(bool success){\n        for(uint256 i = 0; i < nextId; i++){\n            if(compareStrings(document[i].id, id)){\n              delete document[i];\n              emit DeleteDocument(id);\n              return true;\n           }\n       }\n       return false;\n   }\n   \n   function DeleteVerificatorById(string memory id) public returns(bool success){\n        for(uint256 i = 0; i < verifId; i++){\n            if(compareStrings(verifikator[i].id, id)){\n              delete verifikator[i];\n              emit DeleteVerificator(id);\n              return true;\n           }\n       }\n       return false;\n   }\n\n    function compareStrings (string memory a, string memory b)  internal pure returns (bool){\n       return keccak256(abi.encodePacked(a)) == keccak256(abi.encodePacked(b));\n   }\n}",
  "sourcePath": "/home/americano/testnew/end/contracts/Crud.sol",
  "compiler": {
    "name": "solc",
    "version": "0.5.16+commit.9c3226ce.Emscripten.clang"
  },
  "schemaVersion": "3.3.4",
  "updatedAt": "2021-07-06T04:52:48.385Z",
  "networkType": "ethereum",
  "devdoc": {
    "methods": {}
  },
  "userdoc": {
    "methods": {}
  }
}